S0240000533135206C63642061737369676E6D656E7420322037616D6F6B34612E73726563B5
S11300000C942A000C9447000C9447000C9447006D
S11300100C9447000C9447000C9447000C94470040
S11300200C9447000C9447000C9447000C94470030
S11300300C9447000C9447000C9447000C94470020
S11300400C9447000C9447000C9447000C94470010
S11300500C94470011241FBECFE5D8E0DEBFCDBF0E
S113006011E0A0E6B0E0E2EBFAE002C005900D92E8
S1130070A433B107D9F721E0A4E3B1E001C01D9294
S1130080AC33B207E1F70E947F010C9457050C943E
S113009000004130C1F5813091F028F08230D9F070
S11300A0833029F16EC081E090E002C0880F991F6F
S11300B06A95E2F79AB3892B8ABB80E0089581E0C0
S11300C090E002C0880F991F6A95E2F797B3892BD5
S11300D087BB80E0089581E090E002C0880F991FFB
S11300E06A95E2F794B3892B84BB80E0089581E09C
S11300F090E002C0880F991F6A95E2F791B3892BAB
S113010081BB80E0089541113EC0813099F028F010
S11301108230E9F0833041F138C081E090E002C0E0
S1130120880F991F6A95E2F780959AB389238ABB51
S113013080E0089581E090E002C0880F991F6A95DD
S1130140E2F7809597B3892387BB80E0089581E027
S113015090E002C0880F991F6A95E2F7809594B3E6
S1130160892384BB80E0089581E090E002C0880F79
S1130170991F6A95E2F7809591B3892381BB80E04A
S1130180089581E0089581E0089581E00895413063
S1130190C1F5813091F028F08230D9F0833029F113
S11301A06EC081E090E002C0880F991F6A95E2F763
S11301B09BB3892B8BBB80E0089581E090E002C063
S11301C0880F991F6A95E2F798B3892B88BB80E062
S11301D0089581E090E002C0880F991F6A95E2F7C4
S11301E095B3892B85BB80E0089581E090E002C03F
S11301F0880F991F6A95E2F792B3892B82BB80E03E
S1130200089541113EC0813099F028F08230E9F020
S1130210833041F138C081E090E002C0880F991F1B
S11302206A95E2F780959BB389238BBB80E00895A0
S113023081E090E002C0880F991F6A95E2F78095EB
S113024098B3892388BB80E0089581E090E002C0E0
S1130250880F991F6A95E2F7809595B3892385BB2A
S113026080E0089581E090E002C0880F991F6A95AC
S1130270E2F7809592B3892382BB80E0089581E000
S1130280089581E0089581E00895813091F028F087
S11302908230D9F0833029F130C089B390E002C0B4
S11302A0959587956A95E2F78170FA01808380E0DD
S11302B0089586B390E002C0959587956A95E2F714
S11302C08170FA01808380E0089583B390E002C0D6
S11302D0959587956A95E2F78170FA01808380E0AD
S11302E0089580B390E002C0959587956A95E2F7EA
S11302F08170FA01808380E0089581E00895CF93AE
S1130300DF9300D01F92CDB7DEB70E94560241E0C2
S113031063E080E00E94490040E060E081E00E94E8
S1130320490040E060E081E00E94C700198240E09B
S113033066E083E00E94490040E066E083E00E94BA
S1130340C7001A8240E062E083E00E94490040E076
S113035062E083E00E94C7001B820E9422030E9485
S11303607A03AE014F5F5F4F60E081E00E94450178
S1130370AE014E5F5F4F66E083E00E944501AE012F
S11303804D5F5F4F62E083E00E94450189818130C7
S113039049F404C00E94E6021F5F01C010E0183057
S11303A0C8F3DDCF8A81813019F40E94C603D7CF08
S11303B08B818130A1F60E946404D1CFCF93C82FE2
S11303C040E061E081E00E94C70040E062E081E03B
S11303D00E94C7008C2F807F8BBB41E063E081E0EB
S11303E00E94C70085E38A95F1F7000040E063E0CE
S11303F081E00E94C7008FE193E00197F1F700C00C
S11304000000C295C07FCBBB41E063E081E00E9465
S1130410C70095E39A95F1F7000040E063E081E0BE
S11304200E94C7008FE39FE10197F1F700C000002D
S1130430CF910895CF93C82F41E061E081E00E94FD
S1130440C70040E062E081E00E94C7008C2F807FFB
S11304508BBB41E063E081E00E94C70085E38A959D
S1130460F1F7000040E063E081E00E94C7008FE103
S113047093E00197F1F700C00000C295C07FCBBBA9
S113048041E063E081E00E94C70095E39A95F1F7AB
S1130490000040E063E081E00E94C7008FE193E048
S11304A00197F1F700C00000CF9108958FEF8ABB48
S11304B041E062E081E00E94490041E061E081E0C6
S11304C00E94490041E063E081E00E9449002FEF6F
S11304D083EF91E0215080409040E1F700C000009C
S11304E083E30E94DE0182E30E94DE0188E20E942F
S11304F0DE018CE00E94DE0181E00E94DE018FE3D8
S11305009FE10197F1F700C0000086E00E94DE0140
S113051008950F931F93CF938C01C0E003C00E94F2
S11305201A02CF5FF801EC0FF11D80818111F7CF22
S1130530CF911F910F910895811105C080E8860F16
S11305400E94DE010895813021F480EC860F0E9420
S1130550DE010895EF92FF920F931F93CF93DF93E1
S11305608C01D62FF42EE22E862F90E00896880F69
S1130570880F880F0E94DE01C0E007C0F801EC0F6D
S1130580F11D80810E941A02CF5FC830B8F36E2D2E
S11305908F2D0E949C028D2F0E941A02DF91CF9111
S11305A01F910F91FF90EF900895FC01908191119C
S11305B003C08FE08083089591509083089581E073
S11305C0809361008FE080936000089581E00E9431
S11305D0DE01209160004091610060E082EB90E0D8
S11305E00E94AA0280E690E00E94D5022FEF85EADD
S11305F09EE0215080409040E1F700C0000081E07F
S11306000E94DE01209160004091610060E08AEA6E
S113061090E00E94AA0280E690E00E94D5022FEFAB
S113062085EA9EE0215080409040E1F700C0000040
S113063081E00E94DE018FE39CE90197F1F700C09D
S1130640000008950F931F93CF93DF93CDB7DEB7C8
S11306502F970FB6F894DEBF0FBECDBF60E080E0E9
S11306600E949C028FE0EAE0F1E0DE011196019025
S11306700D928A95E1F700E030C0CE0101960E9408
S1130680890210E025C0209160004091610060E083
S113069082E091E00E94AA022FEF8FEC97E02150B4
S11306A080409040E1F700C000002091600040913C
S11306B0610060E08AEF90E00E94AA022FEF8FECC5
S11306C097E0215080409040E1F700C000001F5F98
S11306D01230C8F20E94E6020F5F083070F22F96C3
S11306E00FB6F894DEBF0FBECDBFDF91CF911F913F
S11306F00F910895CF93DF93CDB7DEB76A970FB606
S1130700F894DEBF0FBECDBF2FEF83EC99E02150EC
S113071080409040E1F700C0000081E00E94DE01CB
S113072060E080E00E949C0281E1E9E1F1E0DE0109
S1130730119601900D928A95E1F789E0EAE2F1E0E1
S1130740DE01529601900D928A95E1F7CE01019651
S11307500E94890260E081E00E949C02CE014296E0
S11307600E9489020E94DF02209160004091610092
S113077060E08AEF90E00E94AA026A960FB6F894AD
S1130780DEBF0FBECDBFDF91CF910895CF9381E03F
S11307900E94DE010E94DF02C0E091C0209160004F
S11307A04091610060E082EF90E00E94AA022FEF86
S11307B083EC99E0215080409040E1F700C00000B4
S11307C0209160004091610060E08AEE90E00E9418
S11307D0AA022FEF83EC99E0215080409040E1F78A
S11307E000C00000209160004091610060E082EE52
S11307F090E00E94AA022FEF83EC99E02150804000
S11308009040E1F700C00000209160004091610039
S113081060E08AED90E00E94AA022FEF83EC99E059
S1130820215080409040E1F700C00000209160001A
S11308304091610060E082ED90E00E94AA022FEFF7
S113084083EC99E0215080409040E1F700C0000023
S1130850209160004091610060E08AEC90E00E9489
S1130860AA022FEF83EC99E0215080409040E1F7F9
S113087000C00000209160004091610060E082ECC3
S113088090E00E94AA022FEF83EC99E0215080406F
S11308909040E1F700C000002091600040916100A9
S11308A060E08AEB90E00E94AA022FEF83EC99E0CB
S11308B0215080409040E1F700C00000CF5FC3307A
S11308C008F46CCFCF910895CF9381E00E94DE01AC
S11308D020E041E060E082E790E00E94AA020E94EA
S11308E0DF022FE041E061E08AEF90E00E94AA027B
S11308F02FEF83EC99E0215080409040E1F700C055
S1130900000021E041E062E08AE690E00E94AA0251
S113091041E063E080E00E94C7002FEF83EC99E0A0
S1130920215080409040E1F700C0000040E063E0C7
S113093080E00E94C70022E041E063E082E690E0AC
S11309400E94AA022FEF83EC99E02150804090404E
S1130950E1F700C0000021E041E064E084E391E0BD
S11309600E94AA02C3E019C02FEF2C0F41E064E0FB
S113097084E391E00E94AA022C2F41E063E082E626
S113098090E00E94AA022FEF83EC99E0215080406E
S11309909040E1F700C00000CF5FCF3028F32EE095
S11309A041E064E084E391E00E94AA0220916000A7
S11309B04091610061E082EA90E00E94AA022FEF78
S11309C083EC99E0215080409040E1F700C00000A2
S11309D0209160004091610061E08AE990E00E940A
S11309E0AA022FEF83EC99E0215080409040E1F778
S11309F000C00000209160004091610061E082E944
S1130A0090E00E94AA022FEF83EC99E021508040ED
S1130A109040E1F700C00000209160004091610027
S1130A2061E08AE890E00E94AA0241E063E080E08D
S1130A300E94C7002FEF83EC99E021508040904042
S1130A40E1F700C00000C0E025C0209160004091A3
S1130A50610061E082E890E00E94AA022FEF83EC3B
S1130A6099E0215080409040E1F700C000002091BF
S1130A7060004091610061E08AE790E00E94AA0270
S1130A802FEF83EC99E0215080409040E1F700C0C3
S1130A900000CF5FC530C8F22FEF83EC99E02150FE
S1130AA080409040E1F700C00000CF910895F89491
S1050AB0FFCF72
S1130AB20F010000001F000000000204181F1804A8
S1130AC2020100001F1F14181800000E110E00135B
S1130AD2131F0E11110E0013131F00000707010745
S1130AE201070E0E020E060A060A0E0E020E060A70
S1130AF2060A1C1C041C0C140C141C1C08050E14E1
S1130B020A121C1C08140E050A091C1C08150E04E2
S1130B120A11070702150E040A110E0E04041F041B
S1130B220A120E0E04041F040A090E0E04140E0502
S1130B320A0A0E0E04050E140A0A0E0E04141F05E8
S1130B420A0A0E0E04051F140A0A0E0E05051E14C7
S1130B520A0A0E0E06051E140A0A48692049616D26
S1130B622037616D6F6B346100312E52756E202017
S1130B722020322E44616E636500332E4469652E53
S1070B822E2E00000F
S9030000FC
